{
  "_format": "hh-sol-artifact-1",
  "contractName": "UserRoleManager",
  "sourceName": "contracts/RoleManager.sol",
  "abi": [
    {
      "inputs": [],
      "stateMutability": "nonpayable",
      "type": "constructor"
    },
    {
      "anonymous": false,
      "inputs": [
        {
          "indexed": true,
          "internalType": "address",
          "name": "userAddress",
          "type": "address"
        },
        {
          "indexed": false,
          "internalType": "enum UserRoleManager.Role",
          "name": "newRole",
          "type": "uint8"
        }
      ],
      "name": "RoleChanged",
      "type": "event"
    },
    {
      "anonymous": false,
      "inputs": [
        {
          "indexed": true,
          "internalType": "address",
          "name": "userAddress",
          "type": "address"
        },
        {
          "indexed": false,
          "internalType": "enum UserRoleManager.Role",
          "name": "role",
          "type": "uint8"
        }
      ],
      "name": "UserRegistered",
      "type": "event"
    },
    {
      "inputs": [
        {
          "internalType": "address",
          "name": "_userAddress",
          "type": "address"
        },
        {
          "internalType": "enum UserRoleManager.Role",
          "name": "_role",
          "type": "uint8"
        }
      ],
      "name": "addMember",
      "outputs": [],
      "stateMutability": "nonpayable",
      "type": "function"
    },
    {
      "inputs": [
        {
          "internalType": "uint256",
          "name": "index",
          "type": "uint256"
        }
      ],
      "name": "getMemberAddress",
      "outputs": [
        {
          "internalType": "address",
          "name": "",
          "type": "address"
        }
      ],
      "stateMutability": "view",
      "type": "function"
    },
    {
      "inputs": [
        {
          "internalType": "address",
          "name": "_userAddress",
          "type": "address"
        }
      ],
      "name": "isAdmin",
      "outputs": [
        {
          "internalType": "bool",
          "name": "",
          "type": "bool"
        }
      ],
      "stateMutability": "view",
      "type": "function"
    },
    {
      "inputs": [],
      "name": "joinCommunity",
      "outputs": [],
      "stateMutability": "nonpayable",
      "type": "function"
    },
    {
      "inputs": [],
      "name": "myRole",
      "outputs": [
        {
          "internalType": "enum UserRoleManager.Role",
          "name": "",
          "type": "uint8"
        }
      ],
      "stateMutability": "view",
      "type": "function"
    },
    {
      "inputs": [
        {
          "internalType": "address",
          "name": "_userAddress",
          "type": "address"
        }
      ],
      "name": "removeMember",
      "outputs": [],
      "stateMutability": "nonpayable",
      "type": "function"
    },
    {
      "inputs": [],
      "name": "totalMembers",
      "outputs": [
        {
          "internalType": "uint256",
          "name": "",
          "type": "uint256"
        }
      ],
      "stateMutability": "view",
      "type": "function"
    },
    {
      "inputs": [
        {
          "internalType": "address",
          "name": "_userAddress",
          "type": "address"
        },
        {
          "internalType": "enum UserRoleManager.Role",
          "name": "_newRole",
          "type": "uint8"
        }
      ],
      "name": "updateRole",
      "outputs": [],
      "stateMutability": "nonpayable",
      "type": "function"
    },
    {
      "inputs": [
        {
          "internalType": "uint256",
          "name": "",
          "type": "uint256"
        }
      ],
      "name": "userAddresses",
      "outputs": [
        {
          "internalType": "address",
          "name": "",
          "type": "address"
        }
      ],
      "stateMutability": "view",
      "type": "function"
    },
    {
      "inputs": [
        {
          "internalType": "address",
          "name": "",
          "type": "address"
        }
      ],
      "name": "users",
      "outputs": [
        {
          "internalType": "address",
          "name": "userAddress",
          "type": "address"
        },
        {
          "internalType": "enum UserRoleManager.Role",
          "name": "role",
          "type": "uint8"
        },
        {
          "internalType": "bool",
          "name": "isRegistered",
          "type": "bool"
        }
      ],
      "stateMutability": "view",
      "type": "function"
    }
  ],
  "bytecode": "0x608060405234801561001057600080fd5b5061002233600261002760201b60201c565b610398565b6000808373ffffffffffffffffffffffffffffffffffffffff1673ffffffffffffffffffffffffffffffffffffffff16815260200190815260200160002060000160159054906101000a900460ff16156100b6576040517f08c379a00000000000000000000000000000000000000000000000000000000081526004016100ad906102e6565b60405180910390fd5b60405180606001604052808373ffffffffffffffffffffffffffffffffffffffff1681526020018260028111156100f0576100ef610306565b5b8152602001600115158152506000808473ffffffffffffffffffffffffffffffffffffffff1673ffffffffffffffffffffffffffffffffffffffff16815260200190815260200160002060008201518160000160006101000a81548173ffffffffffffffffffffffffffffffffffffffff021916908373ffffffffffffffffffffffffffffffffffffffff16021790555060208201518160000160146101000a81548160ff021916908360028111156101ac576101ab610306565b5b021790555060408201518160000160156101000a81548160ff0219169083151502179055509050506001829080600181540180825580915050600190039060005260206000200160009091909190916101000a81548173ffffffffffffffffffffffffffffffffffffffff021916908373ffffffffffffffffffffffffffffffffffffffff1602179055508173ffffffffffffffffffffffffffffffffffffffff167f8e18574f8a7333e6a87112742a55853a643e2f0550f4e1a3a2c3f1bb2994441d8260405161027d919061037d565b60405180910390a25050565b600082825260208201905092915050565b7f5573657220616c72656164792072656769737465726564000000000000000000600082015250565b60006102d0601783610289565b91506102db8261029a565b602082019050919050565b600060208201905081810360008301526102ff816102c3565b9050919050565b7f4e487b7100000000000000000000000000000000000000000000000000000000600052602160045260246000fd5b6003811061034657610345610306565b5b50565b600081905061035782610335565b919050565b600061036782610349565b9050919050565b6103778161035c565b82525050565b6000602082019050610392600083018461036e565b92915050565b611418806103a76000396000f3fe608060405234801561001057600080fd5b506004361061009d5760003560e01c806362d0d1c31161006657806362d0d1c31461014657806376e92559146101625780638e96d94e146101805780639029444a1461019c578063a87430ba146101cc5761009d565b8062b16fee146100a2578063067a6b05146100ac5780630b1ca49a146100ca57806324d7806c146100e6578063502c9bd514610116575b600080fd5b6100aa6101fe565b005b6100b461029a565b6040516100c19190610e7a565b60405180910390f35b6100e460048036038101906100df9190610ef8565b6102f0565b005b61010060048036038101906100fb9190610ef8565b6105a2565b60405161010d9190610f40565b60405180910390f35b610130600480360381019061012b9190610f91565b610620565b60405161013d9190610fcd565b60405180910390f35b610160600480360381019061015b919061100d565b61065f565b005b61016a6107af565b604051610177919061105c565b60405180910390f35b61019a6004803603810190610195919061100d565b6107bc565b005b6101b660048036038101906101b19190610f91565b610aae565b6040516101c39190610fcd565b60405180910390f35b6101e660048036038101906101e19190610ef8565b610b3d565b6040516101f593929190611077565b60405180910390f35b6000803373ffffffffffffffffffffffffffffffffffffffff1673ffffffffffffffffffffffffffffffffffffffff16815260200190815260200160002060000160159054906101000a900460ff161561028d576040517f08c379a00000000000000000000000000000000000000000000000000000000081526004016102849061110b565b60405180910390fd5b610298336000610ba1565b565b60008060003373ffffffffffffffffffffffffffffffffffffffff1673ffffffffffffffffffffffffffffffffffffffff16815260200190815260200160002060000160149054906101000a900460ff16905090565b60028081111561030357610302610e03565b5b6000803373ffffffffffffffffffffffffffffffffffffffff1673ffffffffffffffffffffffffffffffffffffffff16815260200190815260200160002060000160149054906101000a900460ff16600281111561036457610363610e03565b5b146103a4576040517f08c379a000000000000000000000000000000000000000000000000000000000815260040161039b90611177565b60405180910390fd5b6000803373ffffffffffffffffffffffffffffffffffffffff1673ffffffffffffffffffffffffffffffffffffffff16815260200190815260200160002060000160159054906101000a900460ff16610432576040517f08c379a0000000000000000000000000000000000000000000000000000000008152600401610429906111e3565b60405180910390fd5b6000808273ffffffffffffffffffffffffffffffffffffffff1673ffffffffffffffffffffffffffffffffffffffff16815260200190815260200160002060000160159054906101000a900460ff166104c0576040517f08c379a00000000000000000000000000000000000000000000000000000000081526004016104b79061124f565b60405180910390fd5b6000808273ffffffffffffffffffffffffffffffffffffffff1673ffffffffffffffffffffffffffffffffffffffff168152602001908152602001600020600080820160006101000a81549073ffffffffffffffffffffffffffffffffffffffff02191690556000820160146101000a81549060ff02191690556000820160156101000a81549060ff021916905550508073ffffffffffffffffffffffffffffffffffffffff167f3cdc6ed770815602e888513518c6a3c86c2238544ea0e0086d6647e30b387afe60006040516105979190610e7a565b60405180910390a250565b60006002808111156105b7576105b6610e03565b5b6000808473ffffffffffffffffffffffffffffffffffffffff1673ffffffffffffffffffffffffffffffffffffffff16815260200190815260200160002060000160149054906101000a900460ff16600281111561061857610617610e03565b5b149050919050565b6001818154811061063057600080fd5b906000526020600020016000915054906101000a900473ffffffffffffffffffffffffffffffffffffffff1681565b60028081111561067257610671610e03565b5b6000803373ffffffffffffffffffffffffffffffffffffffff1673ffffffffffffffffffffffffffffffffffffffff16815260200190815260200160002060000160149054906101000a900460ff1660028111156106d3576106d2610e03565b5b14610713576040517f08c379a000000000000000000000000000000000000000000000000000000000815260040161070a90611177565b60405180910390fd5b6000803373ffffffffffffffffffffffffffffffffffffffff1673ffffffffffffffffffffffffffffffffffffffff16815260200190815260200160002060000160159054906101000a900460ff166107a1576040517f08c379a0000000000000000000000000000000000000000000000000000000008152600401610798906111e3565b60405180910390fd5b6107ab8282610ba1565b5050565b6000600180549050905090565b6002808111156107cf576107ce610e03565b5b6000803373ffffffffffffffffffffffffffffffffffffffff1673ffffffffffffffffffffffffffffffffffffffff16815260200190815260200160002060000160149054906101000a900460ff1660028111156108305761082f610e03565b5b14610870576040517f08c379a000000000000000000000000000000000000000000000000000000000815260040161086790611177565b60405180910390fd5b6000803373ffffffffffffffffffffffffffffffffffffffff1673ffffffffffffffffffffffffffffffffffffffff16815260200190815260200160002060000160159054906101000a900460ff166108fe576040517f08c379a00000000000000000000000000000000000000000000000000000000081526004016108f5906111e3565b60405180910390fd5b6000808373ffffffffffffffffffffffffffffffffffffffff1673ffffffffffffffffffffffffffffffffffffffff16815260200190815260200160002060000160159054906101000a900460ff1661098c576040517f08c379a00000000000000000000000000000000000000000000000000000000081526004016109839061124f565b60405180910390fd5b600060028111156109a05761099f610e03565b5b8160028111156109b3576109b2610e03565b5b036109f3576040517f08c379a00000000000000000000000000000000000000000000000000000000081526004016109ea906112bb565b60405180910390fd5b806000808473ffffffffffffffffffffffffffffffffffffffff1673ffffffffffffffffffffffffffffffffffffffff16815260200190815260200160002060000160146101000a81548160ff02191690836002811115610a5757610a56610e03565b5b02179055508173ffffffffffffffffffffffffffffffffffffffff167f3cdc6ed770815602e888513518c6a3c86c2238544ea0e0086d6647e30b387afe82604051610aa29190610e7a565b60405180910390a25050565b60006001805490508210610af7576040517f08c379a0000000000000000000000000000000000000000000000000000000008152600401610aee90611327565b60405180910390fd5b60018281548110610b0b57610b0a611347565b5b9060005260206000200160009054906101000a900473ffffffffffffffffffffffffffffffffffffffff169050919050565b60006020528060005260406000206000915090508060000160009054906101000a900473ffffffffffffffffffffffffffffffffffffffff16908060000160149054906101000a900460ff16908060000160159054906101000a900460ff16905083565b6000808373ffffffffffffffffffffffffffffffffffffffff1673ffffffffffffffffffffffffffffffffffffffff16815260200190815260200160002060000160159054906101000a900460ff1615610c30576040517f08c379a0000000000000000000000000000000000000000000000000000000008152600401610c27906113c2565b60405180910390fd5b60405180606001604052808373ffffffffffffffffffffffffffffffffffffffff168152602001826002811115610c6a57610c69610e03565b5b8152602001600115158152506000808473ffffffffffffffffffffffffffffffffffffffff1673ffffffffffffffffffffffffffffffffffffffff16815260200190815260200160002060008201518160000160006101000a81548173ffffffffffffffffffffffffffffffffffffffff021916908373ffffffffffffffffffffffffffffffffffffffff16021790555060208201518160000160146101000a81548160ff02191690836002811115610d2657610d25610e03565b5b021790555060408201518160000160156101000a81548160ff0219169083151502179055509050506001829080600181540180825580915050600190039060005260206000200160009091909190916101000a81548173ffffffffffffffffffffffffffffffffffffffff021916908373ffffffffffffffffffffffffffffffffffffffff1602179055508173ffffffffffffffffffffffffffffffffffffffff167f8e18574f8a7333e6a87112742a55853a643e2f0550f4e1a3a2c3f1bb2994441d82604051610df79190610e7a565b60405180910390a25050565b7f4e487b7100000000000000000000000000000000000000000000000000000000600052602160045260246000fd5b60038110610e4357610e42610e03565b5b50565b6000819050610e5482610e32565b919050565b6000610e6482610e46565b9050919050565b610e7481610e59565b82525050565b6000602082019050610e8f6000830184610e6b565b92915050565b600080fd5b600073ffffffffffffffffffffffffffffffffffffffff82169050919050565b6000610ec582610e9a565b9050919050565b610ed581610eba565b8114610ee057600080fd5b50565b600081359050610ef281610ecc565b92915050565b600060208284031215610f0e57610f0d610e95565b5b6000610f1c84828501610ee3565b91505092915050565b60008115159050919050565b610f3a81610f25565b82525050565b6000602082019050610f556000830184610f31565b92915050565b6000819050919050565b610f6e81610f5b565b8114610f7957600080fd5b50565b600081359050610f8b81610f65565b92915050565b600060208284031215610fa757610fa6610e95565b5b6000610fb584828501610f7c565b91505092915050565b610fc781610eba565b82525050565b6000602082019050610fe26000830184610fbe565b92915050565b60038110610ff557600080fd5b50565b60008135905061100781610fe8565b92915050565b6000806040838503121561102457611023610e95565b5b600061103285828601610ee3565b925050602061104385828601610ff8565b9150509250929050565b61105681610f5b565b82525050565b6000602082019050611071600083018461104d565b92915050565b600060608201905061108c6000830186610fbe565b6110996020830185610e6b565b6110a66040830184610f31565b949350505050565b600082825260208201905092915050565b7f416c726561647920726567697374657265640000000000000000000000000000600082015250565b60006110f56012836110ae565b9150611100826110bf565b602082019050919050565b60006020820190508181036000830152611124816110e8565b9050919050565b7f556e617574686f72697a65643a2041646d696e73206f6e6c7900000000000000600082015250565b60006111616019836110ae565b915061116c8261112b565b602082019050919050565b6000602082019050818103600083015261119081611154565b9050919050565b7f55736572206e6f74207265676973746572656400000000000000000000000000600082015250565b60006111cd6013836110ae565b91506111d882611197565b602082019050919050565b600060208201905081810360008301526111fc816111c0565b9050919050565b7f55736572206e6f7420666f756e64000000000000000000000000000000000000600082015250565b6000611239600e836110ae565b915061124482611203565b602082019050919050565b600060208201905081810360008301526112688161122c565b9050919050565b7f5573652072656d6f76654d656d62657220696e73746561640000000000000000600082015250565b60006112a56018836110ae565b91506112b08261126f565b602082019050919050565b600060208201905081810360008301526112d481611298565b9050919050565b7f496e646578206f7574206f6620626f756e647300000000000000000000000000600082015250565b60006113116013836110ae565b915061131c826112db565b602082019050919050565b6000602082019050818103600083015261134081611304565b9050919050565b7f4e487b7100000000000000000000000000000000000000000000000000000000600052603260045260246000fd5b7f5573657220616c72656164792072656769737465726564000000000000000000600082015250565b60006113ac6017836110ae565b91506113b782611376565b602082019050919050565b600060208201905081810360008301526113db8161139f565b905091905056fea26469706673582212207a3b0ae729e4268b738adaafb1b3523e1cdc06369101672480de90c0fb3b430264736f6c634300081c0033",
  "linkReferences": {},
  "deployedLinkReferences": {}
}